{
  "contractName": "CircleOfHop",
  "abi": [
    {
      "anonymous": false,
      "inputs": [
        {
          "indexed": false,
          "internalType": "uint256",
          "name": "",
          "type": "uint256"
        }
      ],
      "name": "Test",
      "type": "event"
    },
    {
      "anonymous": false,
      "inputs": [
        {
          "indexed": false,
          "internalType": "string",
          "name": "",
          "type": "string"
        }
      ],
      "name": "Test2",
      "type": "event"
    },
    {
      "inputs": [],
      "name": "initialize",
      "outputs": [],
      "stateMutability": "nonpayable",
      "type": "function"
    },
    {
      "inputs": [],
      "name": "getPrice",
      "outputs": [],
      "stateMutability": "nonpayable",
      "type": "function"
    },
    {
      "inputs": [],
      "name": "getT",
      "outputs": [],
      "stateMutability": "nonpayable",
      "type": "function"
    }
  ],
  "bytecode": "0x608060405234801561001057600080fd5b506101d0806100206000396000f3fe608060405234801561001057600080fd5b50600436106100415760003560e01c806322554f34146100465780638129fc1c1461005057806398d5fdca1461005a575b600080fd5b61004e610064565b005b61005861009b565b005b61006261009d565b005b7f143eed1eb4ccae33fbaddbd32bece759102c7110cf058a9bcb62c9f9d632269a60405161009190610124565b60405180910390a1565b565b7f63a242a632efe33c0e210e04e4173612a17efa4f16aa4890bc7e46caece80de060026040516100cd9190610109565b60405180910390a1565b6100e08161015f565b82525050565b60006100f3600583610144565b91506100fe82610171565b602082019050919050565b600060208201905061011e60008301846100d7565b92915050565b6000602082019050818103600083015261013d816100e6565b9050919050565b600082825260208201905092915050565b6000819050919050565b600061016a82610155565b9050919050565b7f6d6168646900000000000000000000000000000000000000000000000000000060008201525056fea2646970667358221220fd8a101896c1b5176b1d1969c8563bd0da3edb6f19574cfe11d739c458203af964736f6c63430008060033",
  "immutableReferences": {},
  "source": "// SPDX-License-Identifier: GPL-3.0\n\npragma solidity ^0.8.6;\n\ncontract CircleOfHop {\n    event Test(uint256);\n    event Test2(string);\n\n    function initialize() external {}\n\n    function getPrice() external {\n        emit Test(2);\n    }\n\n    function getT() external {\n        emit Test2(\"mahdi\");\n    }\n}\n",
  "sourcePath": "/home/smuggler/Desktop/circleOfHop-contract/contracts/CircleOfHop.sol",
  "compiler": {
    "name": "solc",
    "version": "0.8.6+commit.11564f7e.Emscripten.clang"
  },
  "schemaVersion": "3.4.11",
  "updatedAt": "2023-02-26T09:15:15.175Z",
  "networkType": "ethereum",
  "devdoc": {
    "kind": "dev",
    "methods": {},
    "version": 1
  },
  "userdoc": {
    "kind": "user",
    "methods": {},
    "version": 1
  }
}