{
  "contractName": "CircleOfHop",
  "abi": [
    {
      "anonymous": false,
      "inputs": [
        {
          "indexed": false,
          "internalType": "uint256",
          "name": "x",
          "type": "uint256"
        }
      ],
      "name": "Test",
      "type": "event"
    },
    {
      "anonymous": false,
      "inputs": [
        {
          "indexed": false,
          "internalType": "string",
          "name": "y",
          "type": "string"
        }
      ],
      "name": "Test2",
      "type": "event"
    },
    {
      "inputs": [],
      "name": "getPrice",
      "outputs": [],
      "stateMutability": "nonpayable",
      "type": "function"
    },
    {
      "inputs": [],
      "name": "getT",
      "outputs": [],
      "stateMutability": "nonpayable",
      "type": "function"
    }
  ],
  "bytecode": "0x608060405234801561001057600080fd5b506101b9806100206000396000f3fe608060405234801561001057600080fd5b50600436106100365760003560e01c806322554f341461003b57806398d5fdca14610045575b600080fd5b61004361004f565b005b61004d610086565b005b7f143eed1eb4ccae33fbaddbd32bece759102c7110cf058a9bcb62c9f9d632269a60405161007c9061010d565b60405180910390a1565b7f63a242a632efe33c0e210e04e4173612a17efa4f16aa4890bc7e46caece80de060026040516100b691906100f2565b60405180910390a1565b6100c981610148565b82525050565b60006100dc60058361012d565b91506100e78261015a565b602082019050919050565b600060208201905061010760008301846100c0565b92915050565b60006020820190508181036000830152610126816100cf565b9050919050565b600082825260208201905092915050565b6000819050919050565b60006101538261013e565b9050919050565b7f6d6168646900000000000000000000000000000000000000000000000000000060008201525056fea2646970667358221220a9a01009f790b7d0a4e86ebd068081d33f70320ea6e1c56ae3cad4996fca1d2e64736f6c63430008060033",
  "immutableReferences": {},
  "source": "// SPDX-License-Identifier: GPL-3.0\n\npragma solidity ^0.8.6;\n\ncontract CircleOfHop {\n    event Test(uint256 x);\n    event Test2(string y);\n\n    // function initialize() external {}\n\n    function getPrice() external {\n        emit Test(2);\n    }\n\n    function getT() external {\n        emit Test2(\"mahdi\");\n    }\n}\n",
  "sourcePath": "/home/smuggler/Desktop/circleOfHop-contract/contracts/CircleOfHop.sol",
  "compiler": {
    "name": "solc",
    "version": "0.8.6+commit.11564f7e.Emscripten.clang"
  },
  "schemaVersion": "3.4.11",
  "updatedAt": "2023-02-26T14:39:21.268Z",
  "networkType": "ethereum",
  "devdoc": {
    "kind": "dev",
    "methods": {},
    "version": 1
  },
  "userdoc": {
    "kind": "user",
    "methods": {},
    "version": 1
  }
}