{
  "contractName": "CircleOfHop",
  "abi": [
    {
      "anonymous": false,
      "inputs": [
        {
          "indexed": false,
          "internalType": "uint256",
          "name": "_treeId",
          "type": "uint256"
        }
      ],
      "name": "TreeAssigned",
      "type": "event"
    },
    {
      "anonymous": false,
      "inputs": [
        {
          "indexed": false,
          "internalType": "uint256",
          "name": "_treeId",
          "type": "uint256"
        }
      ],
      "name": "TreeUpdatedVerified",
      "type": "event"
    },
    {
      "anonymous": false,
      "inputs": [
        {
          "indexed": false,
          "internalType": "address",
          "name": "signer",
          "type": "address"
        },
        {
          "indexed": false,
          "internalType": "uint256",
          "name": "nonce",
          "type": "uint256"
        }
      ],
      "name": "TreeVerified",
      "type": "event"
    },
    {
      "inputs": [
        {
          "internalType": "uint256",
          "name": "_treeId",
          "type": "uint256"
        }
      ],
      "name": "verifyUpdateBatchWithSignature",
      "outputs": [],
      "stateMutability": "nonpayable",
      "type": "function"
    },
    {
      "inputs": [
        {
          "internalType": "address",
          "name": "signer",
          "type": "address"
        },
        {
          "internalType": "uint256",
          "name": "nonce",
          "type": "uint256"
        }
      ],
      "name": "verifyTreeBatchWithSignature",
      "outputs": [],
      "stateMutability": "nonpayable",
      "type": "function"
    },
    {
      "inputs": [
        {
          "internalType": "uint256",
          "name": "_treeId",
          "type": "uint256"
        }
      ],
      "name": "assignTreeBatch",
      "outputs": [],
      "stateMutability": "nonpayable",
      "type": "function"
    }
  ],
  "bytecode": "0x608060405234801561001057600080fd5b506102e9806100206000396000f3fe608060405234801561001057600080fd5b50600436106100415760003560e01c8063303b625514610046578063ab99e71414610062578063cf98781b1461007e575b600080fd5b610060600480360381019061005b9190610175565b61009a565b005b61007c600480360381019061007791906101b5565b6100d7565b005b610098600480360381019061009391906101b5565b610111565b005b7fc8d1c35bf887df6591a832b9cf5d4b2c5bbbfb36bed9d379daad85482a5fc5ae82826040516100cb929190610200565b60405180910390a15050565b7f50dc150da4a25245987f08b8287e8418fa686f9fa829464e548245dff47345e1816040516101069190610229565b60405180910390a150565b7f5569e20f761862546a9a892a1fd4508e29978c6a2673afb7ec47675e8cf6b465816040516101409190610229565b60405180910390a150565b60008135905061015a81610285565b92915050565b60008135905061016f8161029c565b92915050565b6000806040838503121561018c5761018b610280565b5b600061019a8582860161014b565b92505060206101ab85828601610160565b9150509250929050565b6000602082840312156101cb576101ca610280565b5b60006101d984828501610160565b91505092915050565b6101eb81610244565b82525050565b6101fa81610276565b82525050565b600060408201905061021560008301856101e2565b61022260208301846101f1565b9392505050565b600060208201905061023e60008301846101f1565b92915050565b600061024f82610256565b9050919050565b600073ffffffffffffffffffffffffffffffffffffffff82169050919050565b6000819050919050565b600080fd5b61028e81610244565b811461029957600080fd5b50565b6102a581610276565b81146102b057600080fd5b5056fea2646970667358221220c48f5bfbe0e8f92c749d31d27d6b699916c62bd1ae8e2257ba0b599be7fe446964736f6c63430008060033",
  "immutableReferences": {},
  "source": "// SPDX-License-Identifier: GPL-3.0\n\npragma solidity ^0.8.6;\n\ncontract CircleOfHop {\n    event TreeUpdatedVerified(uint256 _treeId);\n    event TreeVerified(address signer, uint256 nonce);\n    event TreeAssigned(uint256 _treeId);\n\n    function verifyUpdateBatchWithSignature(uint256 _treeId) external {\n        emit TreeUpdatedVerified(_treeId);\n    }\n\n    function verifyTreeBatchWithSignature(address signer, uint256 nonce)\n        external\n    {\n        emit TreeVerified(signer, nonce);\n    }\n\n    function assignTreeBatch(uint256 _treeId) external {\n        emit TreeAssigned(_treeId);\n    }\n}\n",
  "sourcePath": "/home/smuggler/Desktop/circleOfHop-contract/contracts/CircleOfHop.sol",
  "compiler": {
    "name": "solc",
    "version": "0.8.6+commit.11564f7e.Emscripten.clang"
  },
  "schemaVersion": "3.4.11",
  "updatedAt": "2023-02-26T15:58:59.759Z",
  "devdoc": {
    "kind": "dev",
    "methods": {},
    "version": 1
  },
  "userdoc": {
    "kind": "user",
    "methods": {},
    "version": 1
  }
}